:03000000020133C7
:0C013300787FE4F6D8FD75810F02013FD3
:10012100AD071FED600BE4FEEEC3946450F20E8048
:01013100F7D6
:0101320022AA
:060003007E007D007C0080
:080009008F0B8E0A8D098C0893
:10001100780874FF1200DEEC4D4E4F6035E4F50FA9
:10002100F50EF50DF50CE47FE87E03FDFCAB0FAAA0
:100031000EA90DA80CC31200CB50D5E50F2401F574
:100041000FE4350EF50EE4350DF50DE4350CF50C28
:0200510080D459
:01005300228A
:1000FC00AC05C2A1C2A2EF7004C2A38005BF01026D
:10010C00D2A37F0A1201218C907F0A120121D2A165
:05011C007F1402012127
:10009A00C2A07F1E120003D2A07F141200037D307B
:1000AA00E4FF1200FC7D08E4FF1200FC7D01E4FF7E
:1000BA001200FC7D06E4FF1200FC7D0CE4FF020046
:0100CA00FC39
:02005400AB07F8
:10005600E4FAF97D34FF1200FC7D36E4FF1200FC61
:10006600EAC39420EA500C2480FDE4FF1200FC7DD4
:1000760080800A2460FDE4FF1200FC7D88E4FF1204
:1000860000FCE4F9AD037F011200FC09B910F50A82
:03009600BA40CDA0
:010099002244
:0A013F0012009A7FFF12005480FEA8
:1000CB00EB9FF5F0EA9E42F0E99D42F0E89C45F08B
:0100DB002202
:1000DC007401FF3395E0FEFDFC080808E6CF2FF60F
:1000EC0018E6CE3EF618E6CD3DF618E6CC3CF622E8
:00000001FF
